{
    "contractName": "AvatarWearable",
    "abi": [
        {
            "inputs": [
                {
                    "internalType": "string",
                    "name": "name",
                    "type": "string"
                },
                {
                    "internalType": "string",
                    "name": "symbol",
                    "type": "string"
                }
            ],
            "stateMutability": "nonpayable",
            "type": "constructor"
        },
        {
            "inputs": [],
            "name": "ERC725Y_DataKeysValuesEmptyArray",
            "type": "error"
        },
        {
            "inputs": [],
            "name": "ERC725Y_DataKeysValuesLengthMismatch",
            "type": "error"
        },
        {
            "inputs": [],
            "name": "ERC725Y_MsgValueDisallowed",
            "type": "error"
        },
        {
            "inputs": [
                {
                    "internalType": "bytes",
                    "name": "storedData",
                    "type": "bytes"
                }
            ],
            "name": "InvalidExtensionAddress",
            "type": "error"
        },
        {
            "inputs": [
                {
                    "internalType": "bytes",
                    "name": "data",
                    "type": "bytes"
                }
            ],
            "name": "InvalidFunctionSelector",
            "type": "error"
        },
        {
            "inputs": [],
            "name": "LSP4TokenNameNotEditable",
            "type": "error"
        },
        {
            "inputs": [],
            "name": "LSP4TokenSymbolNotEditable",
            "type": "error"
        },
        {
            "inputs": [],
            "name": "LSP4TokenTypeNotEditable",
            "type": "error"
        },
        {
            "inputs": [
                {
                    "internalType": "uint256",
                    "name": "callIndex",
                    "type": "uint256"
                }
            ],
            "name": "LSP8BatchCallFailed",
            "type": "error"
        },
        {
            "inputs": [],
            "name": "LSP8CannotSendToAddressZero",
            "type": "error"
        },
        {
            "inputs": [],
            "name": "LSP8CannotSendToSelf",
            "type": "error"
        },
        {
            "inputs": [],
            "name": "LSP8CannotUseAddressZeroAsOperator",
            "type": "error"
        },
        {
            "inputs": [],
            "name": "LSP8InvalidTransferBatch",
            "type": "error"
        },
        {
            "inputs": [
                {
                    "internalType": "bytes32",
                    "name": "tokenId",
                    "type": "bytes32"
                }
            ],
            "name": "LSP8NonExistentTokenId",
            "type": "error"
        },
        {
            "inputs": [
                {
                    "internalType": "address",
                    "name": "operator",
                    "type": "address"
                },
                {
                    "internalType": "bytes32",
                    "name": "tokenId",
                    "type": "bytes32"
                }
            ],
            "name": "LSP8NonExistingOperator",
            "type": "error"
        },
        {
            "inputs": [
                {
                    "internalType": "bytes32",
                    "name": "tokenId",
                    "type": "bytes32"
                },
                {
                    "internalType": "address",
                    "name": "caller",
                    "type": "address"
                }
            ],
            "name": "LSP8NotTokenOperator",
            "type": "error"
        },
        {
            "inputs": [
                {
                    "internalType": "address",
                    "name": "tokenOwner",
                    "type": "address"
                },
                {
                    "internalType": "bytes32",
                    "name": "tokenId",
                    "type": "bytes32"
                },
                {
                    "internalType": "address",
                    "name": "caller",
                    "type": "address"
                }
            ],
            "name": "LSP8NotTokenOwner",
            "type": "error"
        },
        {
            "inputs": [
                {
                    "internalType": "address",
                    "name": "tokenReceiver",
                    "type": "address"
                }
            ],
            "name": "LSP8NotifyTokenReceiverContractMissingLSP1Interface",
            "type": "error"
        },
        {
            "inputs": [
                {
                    "internalType": "address",
                    "name": "tokenReceiver",
                    "type": "address"
                }
            ],
            "name": "LSP8NotifyTokenReceiverIsEOA",
            "type": "error"
        },
        {
            "inputs": [
                {
                    "internalType": "address",
                    "name": "operator",
                    "type": "address"
                },
                {
                    "internalType": "bytes32",
                    "name": "tokenId",
                    "type": "bytes32"
                }
            ],
            "name": "LSP8OperatorAlreadyAuthorized",
            "type": "error"
        },
        {
            "inputs": [],
            "name": "LSP8TokenContractCannotHoldValue",
            "type": "error"
        },
        {
            "inputs": [
                {
                    "internalType": "bytes32",
                    "name": "tokenId",
                    "type": "bytes32"
                }
            ],
            "name": "LSP8TokenIdAlreadyMinted",
            "type": "error"
        },
        {
            "inputs": [],
            "name": "LSP8TokenIdFormatNotEditable",
            "type": "error"
        },
        {
            "inputs": [],
            "name": "LSP8TokenIdsDataEmptyArray",
            "type": "error"
        },
        {
            "inputs": [],
            "name": "LSP8TokenIdsDataLengthMismatch",
            "type": "error"
        },
        {
            "inputs": [],
            "name": "LSP8TokenOwnerCannotBeOperator",
            "type": "error"
        },
        {
            "inputs": [
                {
                    "internalType": "bytes4",
                    "name": "functionSelector",
                    "type": "bytes4"
                }
            ],
            "name": "NoExtensionFoundForFunctionSelector",
            "type": "error"
        },
        {
            "inputs": [
                {
                    "internalType": "address",
                    "name": "callerAddress",
                    "type": "address"
                }
            ],
            "name": "OwnableCallerNotTheOwner",
            "type": "error"
        },
        {
            "inputs": [],
            "name": "OwnableCannotSetZeroAddressAsOwner",
            "type": "error"
        },
        {
            "anonymous": false,
            "inputs": [
                {
                    "indexed": true,
                    "internalType": "bytes32",
                    "name": "dataKey",
                    "type": "bytes32"
                },
                {
                    "indexed": false,
                    "internalType": "bytes",
                    "name": "dataValue",
                    "type": "bytes"
                }
            ],
            "name": "DataChanged",
            "type": "event"
        },
        {
            "anonymous": false,
            "inputs": [
                {
                    "indexed": true,
                    "internalType": "address",
                    "name": "operator",
                    "type": "address"
                },
                {
                    "indexed": true,
                    "internalType": "address",
                    "name": "tokenOwner",
                    "type": "address"
                },
                {
                    "indexed": true,
                    "internalType": "bytes32",
                    "name": "tokenId",
                    "type": "bytes32"
                },
                {
                    "indexed": false,
                    "internalType": "bytes",
                    "name": "operatorNotificationData",
                    "type": "bytes"
                }
            ],
            "name": "OperatorAuthorizationChanged",
            "type": "event"
        },
        {
            "anonymous": false,
            "inputs": [
                {
                    "indexed": true,
                    "internalType": "address",
                    "name": "operator",
                    "type": "address"
                },
                {
                    "indexed": true,
                    "internalType": "address",
                    "name": "tokenOwner",
                    "type": "address"
                },
                {
                    "indexed": true,
                    "internalType": "bytes32",
                    "name": "tokenId",
                    "type": "bytes32"
                },
                {
                    "indexed": false,
                    "internalType": "bool",
                    "name": "notified",
                    "type": "bool"
                },
                {
                    "indexed": false,
                    "internalType": "bytes",
                    "name": "operatorNotificationData",
                    "type": "bytes"
                }
            ],
            "name": "OperatorRevoked",
            "type": "event"
        },
        {
            "anonymous": false,
            "inputs": [
                {
                    "indexed": true,
                    "internalType": "address",
                    "name": "previousOwner",
                    "type": "address"
                },
                {
                    "indexed": true,
                    "internalType": "address",
                    "name": "newOwner",
                    "type": "address"
                }
            ],
            "name": "OwnershipTransferred",
            "type": "event"
        },
        {
            "anonymous": false,
            "inputs": [
                {
                    "indexed": true,
                    "internalType": "bytes32",
                    "name": "tokenId",
                    "type": "bytes32"
                },
                {
                    "indexed": true,
                    "internalType": "bytes32",
                    "name": "dataKey",
                    "type": "bytes32"
                },
                {
                    "indexed": false,
                    "internalType": "bytes",
                    "name": "dataValue",
                    "type": "bytes"
                }
            ],
            "name": "TokenIdDataChanged",
            "type": "event"
        },
        {
            "anonymous": false,
            "inputs": [
                {
                    "indexed": false,
                    "internalType": "address",
                    "name": "operator",
                    "type": "address"
                },
                {
                    "indexed": true,
                    "internalType": "address",
                    "name": "from",
                    "type": "address"
                },
                {
                    "indexed": true,
                    "internalType": "address",
                    "name": "to",
                    "type": "address"
                },
                {
                    "indexed": true,
                    "internalType": "bytes32",
                    "name": "tokenId",
                    "type": "bytes32"
                },
                {
                    "indexed": false,
                    "internalType": "bool",
                    "name": "force",
                    "type": "bool"
                },
                {
                    "indexed": false,
                    "internalType": "bytes",
                    "name": "data",
                    "type": "bytes"
                }
            ],
            "name": "Transfer",
            "type": "event"
        },
        {
            "stateMutability": "payable",
            "type": "fallback"
        },
        {
            "inputs": [
                {
                    "internalType": "address",
                    "name": "operator",
                    "type": "address"
                },
                {
                    "internalType": "bytes32",
                    "name": "tokenId",
                    "type": "bytes32"
                },
                {
                    "internalType": "bytes",
                    "name": "operatorNotificationData",
                    "type": "bytes"
                }
            ],
            "name": "authorizeOperator",
            "outputs": [],
            "stateMutability": "nonpayable",
            "type": "function"
        },
        {
            "inputs": [],
            "name": "avatarAccessContract",
            "outputs": [
                {
                    "internalType": "address",
                    "name": "",
                    "type": "address"
                }
            ],
            "stateMutability": "view",
            "type": "function"
        },
        {
            "inputs": [
                {
                    "internalType": "address",
                    "name": "tokenOwner",
                    "type": "address"
                }
            ],
            "name": "balanceOf",
            "outputs": [
                {
                    "internalType": "uint256",
                    "name": "",
                    "type": "uint256"
                }
            ],
            "stateMutability": "view",
            "type": "function"
        },
        {
            "inputs": [
                {
                    "internalType": "bytes[]",
                    "name": "data",
                    "type": "bytes[]"
                }
            ],
            "name": "batchCalls",
            "outputs": [
                {
                    "internalType": "bytes[]",
                    "name": "results",
                    "type": "bytes[]"
                }
            ],
            "stateMutability": "nonpayable",
            "type": "function"
        },
        {
            "inputs": [
                {
                    "internalType": "uint256",
                    "name": "tokenId",
                    "type": "uint256"
                },
                {
                    "internalType": "address",
                    "name": "tokenOwner",
                    "type": "address"
                }
            ],
            "name": "equipWearable",
            "outputs": [],
            "stateMutability": "nonpayable",
            "type": "function"
        },
        {
            "inputs": [
                {
                    "internalType": "bytes32",
                    "name": "dataKey",
                    "type": "bytes32"
                }
            ],
            "name": "getData",
            "outputs": [
                {
                    "internalType": "bytes",
                    "name": "dataValue",
                    "type": "bytes"
                }
            ],
            "stateMutability": "view",
            "type": "function"
        },
        {
            "inputs": [
                {
                    "internalType": "bytes32[]",
                    "name": "dataKeys",
                    "type": "bytes32[]"
                }
            ],
            "name": "getDataBatch",
            "outputs": [
                {
                    "internalType": "bytes[]",
                    "name": "dataValues",
                    "type": "bytes[]"
                }
            ],
            "stateMutability": "view",
            "type": "function"
        },
        {
            "inputs": [
                {
                    "internalType": "bytes32[]",
                    "name": "tokenIds",
                    "type": "bytes32[]"
                },
                {
                    "internalType": "bytes32[]",
                    "name": "dataKeys",
                    "type": "bytes32[]"
                }
            ],
            "name": "getDataBatchForTokenIds",
            "outputs": [
                {
                    "internalType": "bytes[]",
                    "name": "dataValues",
                    "type": "bytes[]"
                }
            ],
            "stateMutability": "view",
            "type": "function"
        },
        {
            "inputs": [
                {
                    "internalType": "bytes32",
                    "name": "tokenId",
                    "type": "bytes32"
                },
                {
                    "internalType": "bytes32",
                    "name": "dataKey",
                    "type": "bytes32"
                }
            ],
            "name": "getDataForTokenId",
            "outputs": [
                {
                    "internalType": "bytes",
                    "name": "dataValue",
                    "type": "bytes"
                }
            ],
            "stateMutability": "view",
            "type": "function"
        },
        {
            "inputs": [
                {
                    "internalType": "bytes32",
                    "name": "tokenId",
                    "type": "bytes32"
                }
            ],
            "name": "getOperatorsOf",
            "outputs": [
                {
                    "internalType": "address[]",
                    "name": "",
                    "type": "address[]"
                }
            ],
            "stateMutability": "view",
            "type": "function"
        },
        {
            "inputs": [
                {
                    "internalType": "address",
                    "name": "operator",
                    "type": "address"
                },
                {
                    "internalType": "bytes32",
                    "name": "tokenId",
                    "type": "bytes32"
                }
            ],
            "name": "isOperatorFor",
            "outputs": [
                {
                    "internalType": "bool",
                    "name": "",
                    "type": "bool"
                }
            ],
            "stateMutability": "view",
            "type": "function"
        },
        {
            "inputs": [
                {
                    "internalType": "address",
                    "name": "to",
                    "type": "address"
                }
            ],
            "name": "mint",
            "outputs": [],
            "stateMutability": "nonpayable",
            "type": "function"
        },
        {
            "inputs": [],
            "name": "owner",
            "outputs": [
                {
                    "internalType": "address",
                    "name": "",
                    "type": "address"
                }
            ],
            "stateMutability": "view",
            "type": "function"
        },
        {
            "inputs": [],
            "name": "renounceOwnership",
            "outputs": [],
            "stateMutability": "nonpayable",
            "type": "function"
        },
        {
            "inputs": [
                {
                    "internalType": "address",
                    "name": "operator",
                    "type": "address"
                },
                {
                    "internalType": "bytes32",
                    "name": "tokenId",
                    "type": "bytes32"
                },
                {
                    "internalType": "bool",
                    "name": "notify",
                    "type": "bool"
                },
                {
                    "internalType": "bytes",
                    "name": "operatorNotificationData",
                    "type": "bytes"
                }
            ],
            "name": "revokeOperator",
            "outputs": [],
            "stateMutability": "nonpayable",
            "type": "function"
        },
        {
            "inputs": [
                {
                    "internalType": "address",
                    "name": "_avatarAccessContract",
                    "type": "address"
                }
            ],
            "name": "setAvatarAccessContract",
            "outputs": [],
            "stateMutability": "nonpayable",
            "type": "function"
        },
        {
            "inputs": [
                {
                    "internalType": "bytes32",
                    "name": "dataKey",
                    "type": "bytes32"
                },
                {
                    "internalType": "bytes",
                    "name": "dataValue",
                    "type": "bytes"
                }
            ],
            "name": "setData",
            "outputs": [],
            "stateMutability": "payable",
            "type": "function"
        },
        {
            "inputs": [
                {
                    "internalType": "bytes32[]",
                    "name": "dataKeys",
                    "type": "bytes32[]"
                },
                {
                    "internalType": "bytes[]",
                    "name": "dataValues",
                    "type": "bytes[]"
                }
            ],
            "name": "setDataBatch",
            "outputs": [],
            "stateMutability": "payable",
            "type": "function"
        },
        {
            "inputs": [
                {
                    "internalType": "bytes32[]",
                    "name": "tokenIds",
                    "type": "bytes32[]"
                },
                {
                    "internalType": "bytes32[]",
                    "name": "dataKeys",
                    "type": "bytes32[]"
                },
                {
                    "internalType": "bytes[]",
                    "name": "dataValues",
                    "type": "bytes[]"
                }
            ],
            "name": "setDataBatchForTokenIds",
            "outputs": [],
            "stateMutability": "nonpayable",
            "type": "function"
        },
        {
            "inputs": [
                {
                    "internalType": "bytes32",
                    "name": "tokenId",
                    "type": "bytes32"
                },
                {
                    "internalType": "bytes32",
                    "name": "dataKey",
                    "type": "bytes32"
                },
                {
                    "internalType": "bytes",
                    "name": "dataValue",
                    "type": "bytes"
                }
            ],
            "name": "setDataForTokenId",
            "outputs": [],
            "stateMutability": "nonpayable",
            "type": "function"
        },
        {
            "inputs": [
                {
                    "internalType": "bytes4",
                    "name": "interfaceId",
                    "type": "bytes4"
                }
            ],
            "name": "supportsInterface",
            "outputs": [
                {
                    "internalType": "bool",
                    "name": "",
                    "type": "bool"
                }
            ],
            "stateMutability": "view",
            "type": "function"
        },
        {
            "inputs": [
                {
                    "internalType": "address",
                    "name": "tokenOwner",
                    "type": "address"
                }
            ],
            "name": "tokenIdsOf",
            "outputs": [
                {
                    "internalType": "bytes32[]",
                    "name": "",
                    "type": "bytes32[]"
                }
            ],
            "stateMutability": "view",
            "type": "function"
        },
        {
            "inputs": [
                {
                    "internalType": "bytes32",
                    "name": "tokenId",
                    "type": "bytes32"
                }
            ],
            "name": "tokenOwnerOf",
            "outputs": [
                {
                    "internalType": "address",
                    "name": "",
                    "type": "address"
                }
            ],
            "stateMutability": "view",
            "type": "function"
        },
        {
            "inputs": [],
            "name": "totalSupply",
            "outputs": [
                {
                    "internalType": "uint256",
                    "name": "",
                    "type": "uint256"
                }
            ],
            "stateMutability": "view",
            "type": "function"
        },
        {
            "inputs": [
                {
                    "internalType": "address",
                    "name": "from",
                    "type": "address"
                },
                {
                    "internalType": "address",
                    "name": "to",
                    "type": "address"
                },
                {
                    "internalType": "bytes32",
                    "name": "tokenId",
                    "type": "bytes32"
                },
                {
                    "internalType": "bool",
                    "name": "force",
                    "type": "bool"
                },
                {
                    "internalType": "bytes",
                    "name": "data",
                    "type": "bytes"
                }
            ],
            "name": "transfer",
            "outputs": [],
            "stateMutability": "nonpayable",
            "type": "function"
        },
        {
            "inputs": [
                {
                    "internalType": "address[]",
                    "name": "from",
                    "type": "address[]"
                },
                {
                    "internalType": "address[]",
                    "name": "to",
                    "type": "address[]"
                },
                {
                    "internalType": "bytes32[]",
                    "name": "tokenId",
                    "type": "bytes32[]"
                },
                {
                    "internalType": "bool[]",
                    "name": "force",
                    "type": "bool[]"
                },
                {
                    "internalType": "bytes[]",
                    "name": "data",
                    "type": "bytes[]"
                }
            ],
            "name": "transferBatch",
            "outputs": [],
            "stateMutability": "nonpayable",
            "type": "function"
        },
        {
            "inputs": [
                {
                    "internalType": "address",
                    "name": "newOwner",
                    "type": "address"
                }
            ],
            "name": "transferOwnership",
            "outputs": [],
            "stateMutability": "nonpayable",
            "type": "function"
        },
        {
            "inputs": [],
            "name": "withdraw",
            "outputs": [],
            "stateMutability": "nonpayable",
            "type": "function"
        },
        {
            "stateMutability": "payable",
            "type": "receive"
        }
    ],
    "bytecode": "60808060405234610870576132c6803803809161001c8285610874565b83398101906040818303126108705780516001600160401b0381116108705782610047918301610897565b60208201519092906001600160401b038111610870576100679201610897565b903315610861575f546001600160a01b03811633819003610825575b505060409081516100948382610874565b60048152632936598960e21b60208201525f5160206132465f395f51905f525f526001602052825f20815160018060401b038111610511578154600181811c9116801561081b575b60208210146104f357601f81116107d6575b506020601f821160011461075557925f5160206132a65f395f51905f529282610145935f5160206132465f395f51905f52965f9161074a575b508160011b915f199060031b1c19161790555b8551918291826108ec565b0390a25f5160206132065f395f51905f525f908152600160205282902081516001600160401b038111610511578154600181811c91168015610740575b60208210146104f357601f81116106fb575b506020601f821160011461069357925f5160206132a65f395f51905f5292826101eb935f5160206132065f395f51905f52965f91610422575b508160011b915f199060031b1c19161790555b8451918291826108ec565b0390a25f5160206132865f395f51905f525f9081526001602052819020825192906001600160401b038411610511578054600181811c91168015610689575b60208210146104f357601f8111610644575b50602093601f81116001146105dc579161029391835f5160206132a65f395f51905f52945f5160206132865f395f51905f5296975f9161042257508160011b915f199060031b1c19161790558451918291826108ec565b0390a280519060016020830152602082526102ae8183610874565b5f5160206132265f395f51905f525f9081526001602052819020825192906001600160401b038411610511578054600181811c911680156105d2575b60208210146104f357601f811161058d575b50602093601f8111600114610525579161035391835f5160206132a65f395f51905f52945f5160206132265f395f51905f5296975f9161042257508160011b915f199060031b1c19161790558451918291826108ec565b0390a28051905f60208301526020825261036d8183610874565b5f5160206132665f395f51905f525f9081526001602052819020825192906001600160401b038411610511578054600181811c91168015610507575b60208210146104f357601f81116104ae575b50602093601f811160011461042d579161041291835f5160206132a65f395f51905f52945f5160206132665f395f51905f5296975f9161042257508160011b915f199060031b1c19161790558451918291826108ec565b0390a2516128ef90816109178239f35b90508301515f6101cd565b601f198116825f52855f20905f5b81811061049657508261041294925f5160206132665f395f51905f5297985f5160206132a65f395f51905f5297956001941061047e575b5050811b0190556101e0565b8501515f1960f88460031b161c191690555f80610472565b8588015183556020978801976001909301920161043b565b815f5260205f20601f860160051c810191602087106104e9575b601f0160051c01905b8181106104de57506103bb565b5f81556001016104d1565b90915081906104c8565b634e487b7160e01b5f52602260045260245ffd5b90607f16906103a9565b634e487b7160e01b5f52604160045260245ffd5b601f198116825f52855f20905f5b81811061057557508261035394925f5160206132265f395f51905f5297985f5160206132a65f395f51905f5297956001941061047e575050811b0190556101e0565b85880151835560209788019760019093019201610533565b815f5260205f20601f860160051c810191602087106105c8575b601f0160051c01905b8181106105bd57506102fc565b5f81556001016105b0565b90915081906105a7565b90607f16906102ea565b601f198116825f52855f20905f5b81811061062c57508261029394925f5160206132865f395f51905f5297985f5160206132a65f395f51905f5297956001941061047e575050811b0190556101e0565b858801518355602097880197600190930192016105ea565b815f5260205f20601f860160051c8101916020871061067f575b601f0160051c01905b818110610674575061023c565b5f8155600101610667565b909150819061065e565b90607f169061022a565b601f19821690835f52805f20915f5b8181106106e35750835f5160206132065f395f51905f5296935f5160206132a65f395f51905f5296936101eb966001941061047e575050811b0190556101e0565b9192602060018192868a0151815501940192016106a2565b825f5260205f20601f830160051c81019160208410610736575b601f0160051c01905b81811061072b5750610194565b5f815560010161071e565b9091508190610715565b90607f1690610182565b90508301515f610127565b601f19821690835f52805f20915f5b8181106107be5750835f5160206132465f395f51905f5296935f5160206132a65f395f51905f52969361014596600194106107a6575b5050811b01905561013a565b8501515f1960f88460031b161c191690555f8061079a565b9192602060018192868a015181550194019201610764565b825f5260205f20601f830160051c81019160208410610811575b601f0160051c01905b81811061080657506100ee565b5f81556001016107f9565b90915081906107f0565b90607f16906100dc565b33907f8be0079c531659141344cd1fd0a4f28419497f9722a3daafe3b4186f6b6457e05f80a36001600160a01b03191633175f90815580610083565b6306b620db60e21b5f5260045ffd5b5f80fd5b601f909101601f19168101906001600160401b0382119082101761051157604052565b81601f82011215610870578051906001600160401b03821161051157604051926108cb601f8401601f191660200185610874565b8284526020838301011161087057815f9260208093018386015e8301015290565b602060409281835280519182918282860152018484015e5f828201840152601f01601f191601019056fe6080604052600436101561002a575b36156100255761001d3661195a565b602081519101f35b611920565b5f3560e01c806301ffc9a7146101e957806316e023b3146101e457806318160ddd146101df5780631d26fce6146101da578063217b2270146101d55780632a3654a4146101d0578063354bedd9146101cb57806335615ec8146101c65780633ccfd60b146101c157806349a6078d146101bc578063511b6952146101b757806354f6127f146101b25780636963d438146101ad5780636a627842146101a857806370a08231146101a3578063715018a61461019e5780637e87632c146101995780637f23690c1461019457806386a10ddd1461018f5780638da5cb5b1461018a5780639790242114610185578063a3b261f214610180578063b6fea40f1461017b578063be9f0e6f14610176578063d6c1407c14610171578063db8c96631461016c578063dedff9c6146101675763f2fde38b0361000e5761132e565b6112a8565b6111dc565b611195565b61109a565b611057565b610fd9565b610ee7565b610ec0565b610d73565b610d20565b610c68565b610ab6565b610a7e565b610917565b6108ab565b61088c565b610832565b61074e565b610694565b61066c565b610580565b610546565b6104ea565b610438565b61030e565b6102d8565b3461029c57602036600319011261029c576004356001600160e01b0319811680820361029c5761024091631d138b8360e11b8214918215610254575b508115610244575b5060405190151581529081906020820190565b0390f35b61024e91506119a5565b5f61022d565b90915063a918fa6b60e01b8114908115610271575b50905f610225565b6318a6a9a560e21b81149150811561028b575b505f610269565b6301ffc9a760e01b1490505f610284565b5f80fd5b805180835260209291819084018484015e5f828201840152601f01601f1916010190565b9060206102d59281815201906102a0565b90565b3461029c57604036600319011261029c576102406102fa602435600435611ab3565b6040519182916020835260208301906102a0565b3461029c575f36600319011261029c576020600254604051908152f35b634e487b7160e01b5f52604160045260245ffd5b90601f801991011681019081106001600160401b0382111761036057604052565b61032b565b6001600160401b0381116103605760051b60200190565b9080601f8301121561029c57813561039381610365565b926103a1604051948561033f565b81845260208085019260051b82010192831161029c57602001905b8282106103c95750505090565b81358152602091820191016103bc565b602081016020825282518091526040820191602060408360051b8301019401925f915b83831061040b57505050505090565b9091929394602080610429600193603f1986820301875289516102a0565b970193019301919392906103fc565b3461029c57604036600319011261029c576004356001600160401b03811161029c5761046890369060040161037c565b6024356001600160401b03811161029c5761048790369060040161037c565b9061049281516113b7565b915f5b82518110156104dc57806104c06104ae60019386611414565b516104b98386611414565b5190611ab3565b6104ca8287611414565b526104d58186611414565b5001610495565b6040518061024086826103d9565b3461029c57602036600319011261029c57602061050860043561142d565b6040516001600160a01b039091168152f35b600435906001600160a01b038216820361029c57565b602435906001600160a01b038216820361029c57565b3461029c57604036600319011261029c57602061057661056461051a565b6024359061057182611b49565b611b68565b6040519015158152f35b3461029c57604036600319011261029c57610599610530565b6007546105bc906105b0906001600160a01b031681565b6001600160a01b031690565b60405163039b39f960e11b81523360048201529190602090839060249082905afa91821561066757610636926105f9915f91610638575b50611481565b6040516020810190610623816106156004358560209181520190565b03601f19810183528261033f565b51902061062e6114cd565b913390611c7b565b005b61065a915060203d602011610660575b610652818361033f565b810190611461565b5f6105f3565b503d610648565b611476565b3461029c575f36600319011261029c576007546040516001600160a01b039091168152602090f35b3461029c575f36600319011261029c576106ac611d90565b4780156106d0575f805490918291829182916001600160a01b031682f11561066757005b60405162461bcd60e51b81526020600482015260146024820152734e6f2066756e647320746f20776974686472617760601b6044820152606490fd5b60206040818301928281528451809452019201905f5b81811061072f5750505090565b82516001600160a01b0316845260209384019390920191600101610722565b3461029c57602036600319011261029c5760043561076b81611b49565b5f52600560205260405f206040519081602082549182815201915f5260205f20905f5b8181106107b157610240856107a58187038261033f565b6040519182918261070c565b825484526020909301926001928301920161078e565b8015150361029c57565b6001600160401b03811161036057601f01601f191660200190565b81601f8201121561029c57803590610803826107d1565b92610811604051948561033f565b8284526020838301011161029c57815f926020809301838601378301015290565b3461029c5760a036600319011261029c5761084b61051a565b610853610530565b90606435604435610863826107c7565b608435936001600160401b03851161029c576108866106369536906004016107ec565b936114ed565b3461029c57602036600319011261029c576102406102fa600435611658565b3461029c57602036600319011261029c576004356001600160401b03811161029c573660238201121561029c578060040135906001600160401b03821161029c573660248360051b8301011161029c5761024091602461090b920161173c565b604051918291826103d9565b3461029c57602036600319011261029c5761093061051a565b610938611d90565b60025460405160208101908282526020815261095560408261033f565b519020916109616114cd565b916001600160a01b038216908115610a6f575f858152600360205260409020546001600160a01b0316610a5b579380610a56926109a86109a361063698611dca565b600255565b6001600160a01b0385165f9081526004602052604090206109ca90839061267e565b50610a00856109e1845f52600360205260405f2090565b80546001600160a01b0319166001600160a01b03909216919091179055565b5f7fb333c813a7426a7a11e2b190cad52c44119421594b47f6f32ace6d8c7207b2bf60405180610a318a3383611bb7565b0390a4610a48604051948592853360208601611c0a565b03601f19810184528361033f565b61257f565b6334c7b51160e01b5f52600485905260245ffd5b6324ecef4d60e01b5f5260045ffd5b3461029c57602036600319011261029c576001600160a01b03610a9f61051a565b165f526004602052602060405f2054604051908152f35b3461029c575f36600319011261029c57610ace611d90565b5f546001600160a01b03811680610ae157005b5f907f8be0079c531659141344cd1fd0a4f28419497f9722a3daafe3b4186f6b6457e08280a36001600160a01b0319165f55005b9080601f8301121561029c57813590610b2d82610365565b92610b3b604051948561033f565b82845260208085019360051b82010191821161029c57602001915b818310610b635750505090565b82356001600160a01b038116810361029c57815260209283019201610b56565b9080601f8301121561029c578135610b9a81610365565b92610ba8604051948561033f565b81845260208085019260051b82010192831161029c57602001905b828210610bd05750505090565b602080918335610bdf816107c7565b815201910190610bc3565b9080601f8301121561029c578135610c0181610365565b92610c0f604051948561033f565b81845260208085019260051b8201019183831161029c5760208201905b838210610c3b57505050505090565b81356001600160401b03811161029c57602091610c5d878480948801016107ec565b815201910190610c2c565b3461029c5760a036600319011261029c576004356001600160401b03811161029c57610c98903690600401610b15565b6024356001600160401b03811161029c57610cb7903690600401610b15565b906044356001600160401b03811161029c57610cd790369060040161037c565b6064356001600160401b03811161029c57610cf6903690600401610b83565b90608435936001600160401b03851161029c57610d1a610636953690600401610bea565b936117ff565b604036600319011261029c576004356024356001600160401b03811161029c57610d4e9036906004016107ec565b610d56611d90565b34610d645761063691611ddd565b63f36ba73760e01b5f5260045ffd5b3461029c57606036600319011261029c57610d8c61051a565b602435906044356001600160401b03811161029c57610daf9036906004016107ec565b90610db98361142d565b6001600160a01b03811690338203610e9c57506001600160a01b0382168015610e8d57808214610e7e57610e05610e0184610dfc885f52600560205260405f2090565b611f01565b1590565b610e5d579380610e5892610636967f1b1b58aa2ec0cec2228b2d37124556d41f5a1f7b12f089171f896cc23667121560405180610e428a826102c4565b0390a4610a4860405194859233602085016118cb565b6126e6565b6314ec4d6d60e31b5f526001600160a01b038316600452602485905260445ffd5b6344fed6b160e11b5f5260045ffd5b639577b8b360e01b5f5260045ffd5b632d938f5160e11b5f526001600160a01b031660045260248490523360445260645ffd5b3461029c575f36600319011261029c575f546040516001600160a01b039091168152602090f35b604036600319011261029c576004356001600160401b03811161029c57610f1290369060040161037c565b6024356001600160401b03811161029c57610f31903690600401610bea565b90610f3a611d90565b34610d64578051825103610f9157805115610f82575f5b81518110156106365780610f7c610f6a60019385611414565b51610f758387611414565b5190611ddd565b01610f51565b6397da5f9560e01b5f5260045ffd5b633bcc897960e01b5f5260045ffd5b60206040818301928281528451809452019201905f5b818110610fc35750505090565b8251845260209384019390920191600101610fb6565b3461029c57602036600319011261029c576001600160a01b03610ffa61051a565b165f52600460205260405f206040519081602082549182815201915f5260205f20905f5b81811061104157610240856110358187038261033f565b60405191829182610fa0565b825484526020909301926001928301920161101e565b3461029c57602036600319011261029c5761107061051a565b611078611d90565b600780546001600160a01b0319166001600160a01b0392909216919091179055005b3461029c57606036600319011261029c576004356001600160401b03811161029c576110ca90369060040161037c565b6024356001600160401b03811161029c576110e990369060040161037c565b6044356001600160401b03811161029c57611108903690600401610bea565b91611111611d90565b8051825180911490811591611189575b5061117a5780511561116b575f5b8151811015610636578061116561114860019385611414565b516111538387611414565b5161115e8489611414565b5191612047565b0161112f565b6380c9830560e01b5f5260045ffd5b6317d38eff60e11b5f5260045ffd5b9050835114155f611121565b3461029c57606036600319011261029c576044356004356024356001600160401b03831161029c576111ce6106369336906004016107ec565b916111d7611d90565b612047565b3461029c57608036600319011261029c576111f561051a565b6024359060443590611206826107c7565b6064356001600160401b03811161029c576112259036906004016107ec565b9161122f8461142d565b6001600160a01b038116338103611283576001600160a01b038416908115610e8d5714610e7e578382866112639386612181565b61126957005b610e5861063693610a4860405194859233602085016118f6565b632d938f5160e11b5f526001600160a01b03821660045260248690523360445260645ffd5b3461029c57602036600319011261029c576004356001600160401b03811161029c576112d890369060040161037c565b6112e281516113b7565b905f5b815181101561132057806113046112fe60019385611414565b51611658565b61130e8286611414565b526113198185611414565b50016112e5565b6040518061024085826103d9565b3461029c57602036600319011261029c5761134761051a565b61134f611d90565b6001600160a01b031680156113a8575f546001600160a01b03811680830361137357005b82907f8be0079c531659141344cd1fd0a4f28419497f9722a3daafe3b4186f6b6457e05f80a36001600160a01b031916175f55005b6306b620db60e21b5f5260045ffd5b906113c182610365565b6113ce604051918261033f565b82815280926113df601f1991610365565b01905f5b8281106113ef57505050565b8060606020809385010152016113e3565b634e487b7160e01b5f52603260045260245ffd5b80518210156114285760209160051b010190565b611400565b5f818152600360205260409020546001600160a01b031690811561144f575090565b635747cd1b60e11b5f5260045260245ffd5b9081602091031261029c57516102d5816107c7565b6040513d5f823e3d90fd5b1561148857565b60405162461bcd60e51b815260206004820152601e60248201527f5765617261626c6520636f6e7472616374206e6f7420617070726f76656400006044820152606490fd5b604051906114dc60408361033f565b6002825261060f60f31b6020830152565b9291926114fa8433611b68565b15611641576001600160a01b0382811695908216918287146116325761151f8661142d565b6001600160a01b03811684900361160c57508615610a6f57611600868061160a9961160596611550610a489b61142d565b5061155b838761240b565b6001600160a01b0386165f90815260046020526040902061157d908490612809565b506001600160a01b0389165f9081526004602052604090206115a090849061267e565b506115b7896109e1855f52600360205260405f2090565b6040517fb333c813a7426a7a11e2b190cad52c44119421594b47f6f32ace6d8c7207b2bf90806115e98a8e3384611be0565b0390a4604051978894859288863360208701611c41565b612749565b6125ee565b565b632d938f5160e11b5f526001600160a01b0390811660045260248790521660445260645ffd5b635d67d6c160e01b5f5260045ffd5b83631294d2a960e01b5f526004523360245260445ffd5b5f52600160205260405f2060405190815f82549261167584611a7b565b80845293600181169081156116de575060011461169a575b506102d59250038261033f565b90505f9291925260205f20905f915b8183106116c25750509060206102d5928201015f61168d565b60209193508060019154838588010152019101909183926116a9565b9050602092506102d594915060ff191682840152151560051b8201015f61168d565b908092918237015f815290565b3d15611737573d9061171e826107d1565b9161172c604051938461033f565b82523d5f602084013e565b606090565b9190611747816113b7565b925f5b82811061175657505050565b82811015611428578060051b820135601e198336030181121561029c5782018035906001600160401b03821161029c57602001813603811361029c575f91818392506117a760405180938193611700565b0390305af46117b461170d565b90156117da57906001916117c88288611414565b526117d38187611414565b500161174a565b8051909190156117ed5750805190602001fd5b63234eb81960e01b5f5260045260245ffd5b9493909192855193835185148015906118c0575b80156118b5575b80156118aa575b61189b575f5b858110611838575050505050509050565b8061189561185861184b6001948c611414565b516001600160a01b031690565b61186561184b848a611414565b61186f8487611414565b5161188361187d868a611414565b51151590565b9161188e868b611414565b51936114ed565b01611827565b6393a8311960e01b5f5260045ffd5b508251851415611821565b50815185141561181a565b508051851415611813565b6102d5939260809260018060a01b0316825260208201526001604082015281606082015201906102a0565b6102d5939260809260018060a01b0316825260208201525f604082015281606082015201906102a0565b3415611935576330fa4a2160e11b5f5260045ffd5b606460405163e5099ee360e01b815260206004820152600460248201525f6044820152fd5b6004361061196c576102d5905f612238565b6044604051809263e5099ee360e01b825260206004830152806024830152805f848401375f828201840152601f01601f19168101030190fd5b6119ed6119e8604051696773c5a04a6d4300884b60b11b60208201525f602a8201526301ffc9a760e01b602c820152602081526119e360408261033f565b6127ac565b611658565b805160148114159081611a52575b50611a3157611a0c611a1291612335565b60601c90565b906001600160a01b03821615611a2b576102d5916123d8565b50505f90565b6040516342bfe79f60e01b8152908190611a4e90600483016102c4565b0390fd5b905015155f6119fb565b919060405192602084015260408301526040825261160a60608361033f565b90600182811c92168015611aa9575b6020831014611a9557565b634e487b7160e01b5f52602260045260245ffd5b91607f1691611a8a565b90611abd91611a5c565b602081519101205f52600160205260405f2060405190815f825492611ae184611a7b565b80845293600181169081156116de5750600114611b0557506102d59250038261033f565b90505f9291925260205f20905f915b818310611b2d5750509060206102d5928201015f61168d565b6020919350806001915483858801015201910190918392611b14565b5f818152600360205260409020546001600160a01b03161561144f5750565b6001600160a01b03611b798361142d565b6001600160a01b0390921691168114918215611b9457505090565b6102d592505f52600560205260405f206001915f520160205260405f2054151590565b6001600160a01b039091168152600160208201526060604082018190526102d5929101906102a0565b6001600160a01b03909116815290151560208201526060604082018190526102d5929101906102a0565b6001600160a01b0391821681525f602082015291166040820152606081019190915260a0608082018190526102d5929101906102a0565b6001600160a01b03918216815291811660208301529091166040820152606081019190915260a0608082018190526102d5929101906102a0565b926001600160a01b038083169392919085169081851461163257611c9e8461142d565b6001600160a01b038116839003611d6957508415610a6f5761160a956116008580610a489861160596611cd15f9a61142d565b50611cdc838761240b565b6001600160a01b0386165f908152600460205260409020611cfe908490612809565b506001600160a01b0389165f908152600460205260409020611d2190849061267e565b50611d38896109e1855f52600360205260405f2090565b7fb333c813a7426a7a11e2b190cad52c44119421594b47f6f32ace6d8c7207b2bf604051806115e98a8e3384611be0565b632d938f5160e11b5f526001600160a01b039081166004526024859052861660445260645ffd5b5f546001600160a01b03163303611da357565b63bf1169c560e01b5f523360045260245ffd5b634e487b7160e01b5f52601160045260245ffd5b5f198114611dd85760010190565b611db6565b907ff675e9361af1c1664c1868cfa3eb97672d6b1a513aa5b81dec34c9ee330e818d8214611ef2577fdeba1e292f8ba88238e10ab3c7f88bd4be4fac56cad5194b6ecceaf653468af18203611e3b576385c169bd60e01b5f5260045ffd5b7f2f0a68ab07768e01943a599e73362a0e17a63a72e94dd2e384d2c1d4db9327568203611e7157630eceab6760e31b5f5260045ffd5b7fe0261fa95db2eb3b5439bd033cda66d56b96f92f243a8228fd87550ed7bdfdb38203611ea757634ef6d7fb60e01b5f5260045ffd5b611eed7fece574603820d07bc9b91f2a932baadf4628aabcb8afba49776529c14a6104b291835f526001602052611ee18160405f20611f80565b604051918291826102c4565b0390a2565b631b32400560e11b5f5260045ffd5b6102d5916001600160a01b03169061267e565b91611f2d9183549060031b91821b915f19901b19161790565b9055565b601f8211611f3e57505050565b5f5260205f20906020601f840160051c83019310611f76575b601f0160051c01905b818110611f6b575050565b5f8155600101611f60565b9091508190611f57565b91909182516001600160401b03811161036057611fa781611fa18454611a7b565b84611f31565b6020601f8211600114611fe2578190611f2d9394955f92611fd7575b50508160011b915f199060031b1c19161790565b015190505f80611fc3565b601f19821690611ff5845f5260205f2090565b915f5b81811061202f57509583600195969710612017575b505050811b019055565b01515f1960f88460031b161c191690555f808061200d565b9192602060018192868b015181550194019201611ff8565b90916120538383611a5c565b602081519101205f52600160205260405f2081516001600160401b0381116103605761208381611fa18454611a7b565b6020601f82116001146120f457916120d6827fa6e4251f855f750545fe414f120db91c76b88def14d120969e5bb2d3f05debbb95936120e4955f916120e9575b508160011b915f199060031b1c19161790565b9055604051918291826102c4565b0390a3565b90508401515f6120c3565b601f19821690612107845f5260205f2090565b915f5b8181106121695750926120e49492600192827fa6e4251f855f750545fe414f120db91c76b88def14d120969e5bb2d3f05debbb989610612151575b5050811b019055611ee1565b8501515f1960f88460031b161c191690555f80612145565b9192602060018192868a01518155019401920161210a565b919392845f5260056020526121a360405f209360018060a01b03168094612809565b156121f957604080519115158252602082018190526001600160a01b03909216937fc78cd419d6136f9f1c1c6aec1d3fae098cffaf8bc86314a8f2685e32fe574e3c9282916121f4918301906102a0565b0390a4565b84836312a8c6a360e21b5f5260045260245260445ffd5b826034959392823701916bffffffffffffffffffffffff199060601b16825260148201520190565b63ffffffff60e01b5f3516916122846119e8604051696773c5a04a6d4300884b60b11b60208201525f602a82015263ffffffff60e01b8616602c820152602081526119e360408261033f565b80516014811415908161232b575b5061230657611a0c6122a391612335565b926001600160a01b038416156122f45750915f92916106156122d5859460405192839160208301953491339188612210565b519134905af16122e361170d565b90156122ec5790565b602081519101fd5b63bb370b2b60e01b5f5260045260245ffd5b6040516342bfe79f60e01b815260206004820152908190611a4e9060248301906102a0565b905015155f612292565b9060208251920151916bffffffffffffffffffffffff198316926014821061235b575050565b6bffffffffffffffffffffffff1960149290920360031b82901b16169150565b5f602091604051838101906301ffc9a760e01b8252631aed5a8560e21b6024820152602481526123ac60448261033f565b5191617530fa5f513d826123cc575b50816123c5575090565b9050151590565b6020111591505f6123bb565b5f90602092604051848101916301ffc9a760e01b835263ffffffff60e01b166024820152602481526123ac60448261033f565b815f52600560205260405f20918254915f936020945b84811061243057505050505050565b815415611428575f82815286902054604051906001600160a01b0316612456888361033f565b5f8252855f526005885261247760405f209160018060a01b03168092612809565b156124cf576001929186917fc78cd419d6136f9f1c1c6aec1d3fae098cffaf8bc86314a8f2685e32fe574e3c6040515f815260408c820152806124c6888060a01b038b169560408301906102a0565b0390a401612421565b85906312a8c6a360e21b5f5260045260245260445ffd5b60208183031261029c578051906001600160401b03821161029c570181601f8201121561029c57805190612519826107d1565b92612527604051948561033f565b8284526020838301011161029c57815f9260208093018386015e8301015290565b9060406102d5927f0b084a55ebf70fd3c06fd755269dac2212c4d3f0f4d09079780bfa50c1b2984d815281602082015201906102a0565b6125888161237b565b156125ea57604051631aed5a8560e21b8152915f9183918290849082906125b29060048301612548565b03926001600160a01b03165af18015610667576125cc5750565b6125e7903d805f833e6125df818361033f565b8101906124e6565b50565b5050565b91906125f98361237b565b1561262257506125b25f928392604051948580948193631aed5a8560e21b835260048301612548565b90501561262c5750565b803b1561264e57634349776d60e01b5f526001600160a01b031660045260245ffd5b630317313760e01b5f526001600160a01b031660045260245ffd5b8054821015611428575f5260205f2001905f90565b5f828152600182016020526040902054611a2b578054906801000000000000000082101561036057826126d16126bb846001809601855584612669565b819391549060031b91821b915f19901b19161790565b90558054925f520160205260405f2055600190565b6126ef8161237b565b6126f7575050565b6125b25f92918392604051948580948193631aed5a8560e21b83527f8a1c15a8799f71b547e08e2bcb2e85257e81b0a07eee2ce6712549eef1f0097060048401526040602484015260448301906102a0565b6127528161237b565b61275a575050565b6125b25f92918392604051948580948193631aed5a8560e21b83527fb23eae7e6d1564b295b4c3e3be402d9a2f0776c57bdf365903496f6fa481ab0060048401526040602484015260448301906102a0565b6020815191015190602081106127c0575090565b5f199060200360031b1b1690565b805480156127f5575f1901906127e48282612669565b8154905f199060031b1b1916905555565b634e487b7160e01b5f52603160045260245ffd5b6001810191805f528260205260405f2054928315155f146128b1575f198401848111611dd85783545f19810194908511611dd8575f95858361286497612857950361286a575b5050506127ce565b905f5260205260405f2090565b55600190565b61289a6128949161288b6128816128a89588612669565b90549060031b1c90565b92839187612669565b90611f14565b85905f5260205260405f2090565b555f808061284f565b505050505f9056fea264697066735822122043faafb82e12a010fcf2ba5de82be64fc33bb6cd36eac40d9ff0f6732d7f1e8064736f6c634300081e0033deba1e292f8ba88238e10ab3c7f88bd4be4fac56cad5194b6ecceaf653468af1e0261fa95db2eb3b5439bd033cda66d56b96f92f243a8228fd87550ed7bdfdb3eafec4d89fa9619884b60000a4d96624a38f7ac2d8d9a604ecf07c12c77e480cf675e9361af1c1664c1868cfa3eb97672d6b1a513aa5b81dec34c9ee330e818d2f0a68ab07768e01943a599e73362a0e17a63a72e94dd2e384d2c1d4db932756ece574603820d07bc9b91f2a932baadf4628aabcb8afba49776529c14a6104b2",
    "sourcePath": "c:/Users/GabCh/Documents/projects/portal-contracts/contracts/AvatarWearable.sol",
    "compiler": {
        "name": "solc",
        "version": "0.8.30+commit.73712a01"
    },
    "functionHashes": {
        "authorizeOperator(address,bytes32,bytes)": "86a10ddd",
        "avatarAccessContract()": "35615ec8",
        "balanceOf(address)": "70a08231",
        "batchCalls(bytes[])": "6963d438",
        "equipWearable(uint256,address)": "354bedd9",
        "getData(bytes32)": "54f6127f",
        "getDataBatch(bytes32[])": "dedff9c6",
        "getDataBatchForTokenIds(bytes32[],bytes32[])": "1d26fce6",
        "getDataForTokenId(bytes32,bytes32)": "16e023b3",
        "getOperatorsOf(bytes32)": "49a6078d",
        "isOperatorFor(address,bytes32)": "2a3654a4",
        "mint(address)": "6a627842",
        "owner()": "8da5cb5b",
        "renounceOwnership()": "715018a6",
        "revokeOperator(address,bytes32,bool,bytes)": "db8c9663",
        "setAvatarAccessContract(address)": "b6fea40f",
        "setData(bytes32,bytes)": "7f23690c",
        "setDataBatch(bytes32[],bytes[])": "97902421",
        "setDataBatchForTokenIds(bytes32[],bytes32[],bytes[])": "be9f0e6f",
        "setDataForTokenId(bytes32,bytes32,bytes)": "d6c1407c",
        "supportsInterface(bytes4)": "01ffc9a7",
        "tokenIdsOf(address)": "a3b261f2",
        "tokenOwnerOf(bytes32)": "217b2270",
        "totalSupply()": "18160ddd",
        "transfer(address,address,bytes32,bool,bytes)": "511b6952",
        "transferBatch(address[],address[],bytes32[],bool[],bytes[])": "7e87632c",
        "transferOwnership(address)": "f2fde38b",
        "withdraw()": "3ccfd60b"
    },
    "gasEstimates": {
        "creation": {
            "codeDepositCost": "2095800",
            "executionCost": "infinite",
            "totalCost": "infinite"
        },
        "external": {
            "": "infinite",
            "authorizeOperator(address,bytes32,bytes)": "infinite",
            "avatarAccessContract()": "2438",
            "balanceOf(address)": "2718",
            "batchCalls(bytes[])": "infinite",
            "equipWearable(uint256,address)": "infinite",
            "getData(bytes32)": "infinite",
            "getDataBatch(bytes32[])": "infinite",
            "getDataBatchForTokenIds(bytes32[],bytes32[])": "infinite",
            "getDataForTokenId(bytes32,bytes32)": "infinite",
            "getOperatorsOf(bytes32)": "infinite",
            "isOperatorFor(address,bytes32)": "7182",
            "mint(address)": "infinite",
            "owner()": "2701",
            "renounceOwnership()": "28402",
            "revokeOperator(address,bytes32,bool,bytes)": "infinite",
            "setAvatarAccessContract(address)": "27122",
            "setData(bytes32,bytes)": "infinite",
            "setDataBatch(bytes32[],bytes[])": "infinite",
            "setDataBatchForTokenIds(bytes32[],bytes32[],bytes[])": "infinite",
            "setDataForTokenId(bytes32,bytes32,bytes)": "infinite",
            "supportsInterface(bytes4)": "infinite",
            "tokenIdsOf(address)": "infinite",
            "tokenOwnerOf(bytes32)": "2510",
            "totalSupply()": "2304",
            "transfer(address,address,bytes32,bool,bytes)": "infinite",
            "transferBatch(address[],address[],bytes32[],bool[],bytes[])": "infinite",
            "transferOwnership(address)": "28782",
            "withdraw()": "infinite"
        }
    }
}